{
  "contractName": "MediationOffers",
  "abi": [
    {
      "anonymous": false,
      "inputs": [
        {
          "indexed": true,
          "internalType": "address",
          "name": "previousOwner",
          "type": "address"
        },
        {
          "indexed": true,
          "internalType": "address",
          "name": "newOwner",
          "type": "address"
        }
      ],
      "name": "OwnershipTransferred",
      "type": "event"
    },
    {
      "constant": true,
      "inputs": [],
      "name": "owner",
      "outputs": [
        {
          "internalType": "address",
          "name": "",
          "type": "address"
        }
      ],
      "payable": false,
      "stateMutability": "view",
      "type": "function"
    },
    {
      "constant": false,
      "inputs": [
        {
          "internalType": "address",
          "name": "newOwner",
          "type": "address"
        }
      ],
      "name": "transferOwnership",
      "outputs": [],
      "payable": false,
      "stateMutability": "nonpayable",
      "type": "function"
    },
    {
      "constant": false,
      "inputs": [
        {
          "internalType": "address",
          "name": "_oracleAddress",
          "type": "address"
        }
      ],
      "name": "setOracleAddress",
      "outputs": [
        {
          "internalType": "bool",
          "name": "",
          "type": "bool"
        }
      ],
      "payable": false,
      "stateMutability": "nonpayable",
      "type": "function"
    },
    {
      "constant": true,
      "inputs": [],
      "name": "getOracleAddress",
      "outputs": [
        {
          "internalType": "address",
          "name": "",
          "type": "address"
        }
      ],
      "payable": false,
      "stateMutability": "view",
      "type": "function"
    },
    {
      "constant": true,
      "inputs": [],
      "name": "getResolvableDisputes",
      "outputs": [
        {
          "internalType": "bytes32[]",
          "name": "",
          "type": "bytes32[]"
        }
      ],
      "payable": false,
      "stateMutability": "view",
      "type": "function"
    },
    {
      "constant": true,
      "inputs": [
        {
          "internalType": "bytes32",
          "name": "_disputeId",
          "type": "bytes32"
        }
      ],
      "name": "getDispute",
      "outputs": [
        {
          "internalType": "bytes32",
          "name": "id",
          "type": "bytes32"
        },
        {
          "internalType": "string",
          "name": "name",
          "type": "string"
        },
        {
          "internalType": "string",
          "name": "participants",
          "type": "string"
        },
        {
          "internalType": "uint8",
          "name": "participantCount",
          "type": "uint8"
        },
        {
          "internalType": "uint256",
          "name": "date",
          "type": "uint256"
        },
        {
          "internalType": "enum OracleInterface.DisputeOutcome",
          "name": "outcome",
          "type": "uint8"
        },
        {
          "internalType": "int8",
          "name": "mediator",
          "type": "int8"
        }
      ],
      "payable": false,
      "stateMutability": "view",
      "type": "function"
    },
    {
      "constant": true,
      "inputs": [],
      "name": "getMostRecentDispute",
      "outputs": [
        {
          "internalType": "bytes32",
          "name": "id",
          "type": "bytes32"
        },
        {
          "internalType": "string",
          "name": "name",
          "type": "string"
        },
        {
          "internalType": "string",
          "name": "participants",
          "type": "string"
        },
        {
          "internalType": "uint256",
          "name": "participantCount",
          "type": "uint256"
        },
        {
          "internalType": "uint256",
          "name": "date",
          "type": "uint256"
        },
        {
          "internalType": "enum OracleInterface.DisputeOutcome",
          "name": "outcome",
          "type": "uint8"
        },
        {
          "internalType": "int8",
          "name": "mediator",
          "type": "int8"
        }
      ],
      "payable": false,
      "stateMutability": "view",
      "type": "function"
    },
    {
      "constant": false,
      "inputs": [
        {
          "internalType": "bytes32",
          "name": "_disputeId",
          "type": "bytes32"
        },
        {
          "internalType": "uint8",
          "name": "_offerValue",
          "type": "uint8"
        }
      ],
      "name": "makeOffer",
      "outputs": [],
      "payable": true,
      "stateMutability": "payable",
      "type": "function"
    },
    {
      "constant": true,
      "inputs": [],
      "name": "testOracleConnection",
      "outputs": [
        {
          "internalType": "bool",
          "name": "",
          "type": "bool"
        }
      ],
      "payable": false,
      "stateMutability": "view",
      "type": "function"
    }
  ],
  "bytecode": "0x608060405273957f308011bd0fa95ac95fd92a73f06cb7ec6774600360006101000a81548173ffffffffffffffffffffffffffffffffffffffff021916908373ffffffffffffffffffffffffffffffffffffffff160217905550600360009054906101000a900473ffffffffffffffffffffffffffffffffffffffff16600460006101000a81548173ffffffffffffffffffffffffffffffffffffffff021916908373ffffffffffffffffffffffffffffffffffffffff16021790555064e8d4a51000600555336000806101000a81548173ffffffffffffffffffffffffffffffffffffffff021916908373ffffffffffffffffffffffffffffffffffffffff160217905550611430806101146000396000f3fe6080604052600436106100865760003560e01c80634c69c00f116100595780634c69c00f146103b65780638da5cb5b1461041f578063b18b78dd14610476578063cee71d8a146104cd578063f2fde38b1461050857610086565b8063135dd65f1461008b578063136ba6aa146100f75780632a9ad1a2146102545780632ce3707e14610387575b600080fd5b34801561009757600080fd5b506100a0610559565b6040518080602001828103825283818151815260200191508051906020019060200280838360005b838110156100e35780820151818401526020810190506100c8565b505050509050019250505060405180910390f35b34801561010357600080fd5b506101306004803603602081101561011a57600080fd5b810190808035906020019092919050505061069d565b6040518088815260200180602001806020018760ff1660ff16815260200186815260200185600381111561016057fe5b60ff1681526020018460000b60000b8152602001838103835289818151815260200191508051906020019080838360005b838110156101ac578082015181840152602081019050610191565b50505050905090810190601f1680156101d95780820380516001836020036101000a031916815260200191505b50838103825288818151815260200191508051906020019080838360005b838110156102125780820151818401526020810190506101f7565b50505050905090810190601f16801561023f5780820380516001836020036101000a031916815260200191505b50995050505050505050505060405180910390f35b34801561026057600080fd5b50610269610919565b60405180888152602001806020018060200187815260200186815260200185600381111561029357fe5b60ff1681526020018460000b60000b8152602001838103835289818151815260200191508051906020019080838360005b838110156102df5780820151818401526020810190506102c4565b50505050905090810190601f16801561030c5780820380516001836020036101000a031916815260200191505b50838103825288818151815260200191508051906020019080838360005b8381101561034557808201518184015260208101905061032a565b50505050905090810190601f1680156103725780820380516001836020036101000a031916815260200191505b50995050505050505050505060405180910390f35b34801561039357600080fd5b5061039c610b98565b604051808215151515815260200191505060405180910390f35b3480156103c257600080fd5b50610405600480360360208110156103d957600080fd5b81019080803573ffffffffffffffffffffffffffffffffffffffff169060200190929190505050610c42565b604051808215151515815260200191505060405180910390f35b34801561042b57600080fd5b50610434610deb565b604051808273ffffffffffffffffffffffffffffffffffffffff1673ffffffffffffffffffffffffffffffffffffffff16815260200191505060405180910390f35b34801561048257600080fd5b5061048b610e10565b604051808273ffffffffffffffffffffffffffffffffffffffff1673ffffffffffffffffffffffffffffffffffffffff16815260200191505060405180910390f35b610506600480360360408110156104e357600080fd5b8101908080359060200190929190803560ff169060200190929190505050610e3a565b005b34801561051457600080fd5b506105576004803603602081101561052b57600080fd5b81019080803573ffffffffffffffffffffffffffffffffffffffff16906020019092919050505061126d565b005b6060600460009054906101000a900473ffffffffffffffffffffffffffffffffffffffff1673ffffffffffffffffffffffffffffffffffffffff166329f2c2d66040518163ffffffff1660e01b815260040160006040518083038186803b1580156105c357600080fd5b505afa1580156105d7573d6000803e3d6000fd5b505050506040513d6000823e3d601f19601f82011682018060405250602081101561060157600080fd5b810190808051604051939291908464010000000082111561062157600080fd5b8382019150602082018581111561063757600080fd5b825186602082028301116401000000008211171561065457600080fd5b8083526020830192505050908051906020019060200280838360005b8381101561068b578082015181840152602081019050610670565b50505050905001604052505050905090565b6000606080600080600080600460009054906101000a900473ffffffffffffffffffffffffffffffffffffffff1673ffffffffffffffffffffffffffffffffffffffff1663136ba6aa896040518263ffffffff1660e01b81526004018082815260200191505060006040518083038186803b15801561071b57600080fd5b505afa15801561072f573d6000803e3d6000fd5b505050506040513d6000823e3d601f19601f8201168201806040525060e081101561075957600080fd5b81019080805190602001909291908051604051939291908464010000000082111561078357600080fd5b8382019150602082018581111561079957600080fd5b82518660018202830111640100000000821117156107b657600080fd5b8083526020830192505050908051906020019080838360005b838110156107ea5780820151818401526020810190506107cf565b50505050905090810190601f1680156108175780820380516001836020036101000a031916815260200191505b506040526020018051604051939291908464010000000082111561083a57600080fd5b8382019150602082018581111561085057600080fd5b825186600182028301116401000000008211171561086d57600080fd5b8083526020830192505050908051906020019080838360005b838110156108a1578082015181840152602081019050610886565b50505050905090810190601f1680156108ce5780820380516001836020036101000a031916815260200191505b50604052602001805190602001909291908051906020019092919080519060200190929190805190602001909291905050509650965096509650965096509650919395979092949650565b6000606080600080600080600460009054906101000a900473ffffffffffffffffffffffffffffffffffffffff1673ffffffffffffffffffffffffffffffffffffffff1663ca959c7360016040518263ffffffff1660e01b8152600401808215151515815260200191505060006040518083038186803b15801561099c57600080fd5b505afa1580156109b0573d6000803e3d6000fd5b505050506040513d6000823e3d601f19601f8201168201806040525060e08110156109da57600080fd5b810190808051906020019092919080516040519392919084640100000000821115610a0457600080fd5b83820191506020820185811115610a1a57600080fd5b8251866001820283011164010000000082111715610a3757600080fd5b8083526020830192505050908051906020019080838360005b83811015610a6b578082015181840152602081019050610a50565b50505050905090810190601f168015610a985780820380516001836020036101000a031916815260200191505b5060405260200180516040519392919084640100000000821115610abb57600080fd5b83820191506020820185811115610ad157600080fd5b8251866001820283011164010000000082111715610aee57600080fd5b8083526020830192505050908051906020019080838360005b83811015610b22578082015181840152602081019050610b07565b50505050905090810190601f168015610b4f5780820380516001836020036101000a031916815260200191505b5060405260200180519060200190929190805190602001909291908051906020019092919080519060200190929190505050965096509650965096509650965090919293949596565b6000600460009054906101000a900473ffffffffffffffffffffffffffffffffffffffff1673ffffffffffffffffffffffffffffffffffffffff16633412a15c6040518163ffffffff1660e01b815260040160206040518083038186803b158015610c0257600080fd5b505afa158015610c16573d6000803e3d6000fd5b505050506040513d6020811015610c2c57600080fd5b8101908080519060200190929190505050905090565b60008060009054906101000a900473ffffffffffffffffffffffffffffffffffffffff1673ffffffffffffffffffffffffffffffffffffffff163373ffffffffffffffffffffffffffffffffffffffff1614610c9d57600080fd5b81600360006101000a81548173ffffffffffffffffffffffffffffffffffffffff021916908373ffffffffffffffffffffffffffffffffffffffff160217905550600360009054906101000a900473ffffffffffffffffffffffffffffffffffffffff16600460006101000a81548173ffffffffffffffffffffffffffffffffffffffff021916908373ffffffffffffffffffffffffffffffffffffffff160217905550600460009054906101000a900473ffffffffffffffffffffffffffffffffffffffff1673ffffffffffffffffffffffffffffffffffffffff16633412a15c6040518163ffffffff1660e01b815260040160206040518083038186803b158015610da957600080fd5b505afa158015610dbd573d6000803e3d6000fd5b505050506040513d6020811015610dd357600080fd5b81019080805190602001909291905050509050919050565b6000809054906101000a900473ffffffffffffffffffffffffffffffffffffffff1681565b6000600360009054906101000a900473ffffffffffffffffffffffffffffffffffffffff16905090565b600554341015610e95576040517f08c379a00000000000000000000000000000000000000000000000000000000081526004018080602001828103825260258152602001806113d76025913960400191505060405180910390fd5b600460009054906101000a900473ffffffffffffffffffffffffffffffffffffffff1673ffffffffffffffffffffffffffffffffffffffff1663d00e004e836040518263ffffffff1660e01b81526004018082815260200191505060206040518083038186803b158015610f0857600080fd5b505afa158015610f1c573d6000803e3d6000fd5b505050506040513d6020811015610f3257600080fd5b8101908080519060200190929190505050610fb5576040517f08c379a000000000000000000000000000000000000000000000000000000000815260040180806020018281038252601b8152602001807f5370656369666965642064697370757465206e6f7420666f756e64000000000081525060200191505060405180910390fd5b610fc03383836113be565b611032576040517f08c379a00000000000000000000000000000000000000000000000000000000081526004018080602001828103825260128152602001807f4f66666572206973206e6f742076616c6964000000000000000000000000000081525060200191505060405180910390fd5b61103b826113cb565b6110ad576040517f08c379a000000000000000000000000000000000000000000000000000000000815260040180806020018281038252601f8152602001807f44697370757465206e6f74206f70656e20666f72207265736f6c7574696f6e0081525060200191505060405180910390fd5b60003090508073ffffffffffffffffffffffffffffffffffffffff166108fc349081150290604051600060405180830381858888f193505050501580156110f8573d6000803e3d6000fd5b50600060026000858152602001908152602001600020905060018160405180608001604052803373ffffffffffffffffffffffffffffffffffffffff1681526020018781526020013481526020018660ff168152509080600181540180825580915050906001820390600052602060002090600402016000909192909190915060008201518160000160006101000a81548173ffffffffffffffffffffffffffffffffffffffff021916908373ffffffffffffffffffffffffffffffffffffffff160217905550602082015181600101556040820151816002015560608201518160030160006101000a81548160ff021916908360ff160217905550505050506000600160003373ffffffffffffffffffffffffffffffffffffffff1673ffffffffffffffffffffffffffffffffffffffff1681526020019081526020016000209050808590806001815401808255809150509060018203906000526020600020016000909192909190915055505050505050565b6000809054906101000a900473ffffffffffffffffffffffffffffffffffffffff1673ffffffffffffffffffffffffffffffffffffffff163373ffffffffffffffffffffffffffffffffffffffff16146112c657600080fd5b600073ffffffffffffffffffffffffffffffffffffffff168173ffffffffffffffffffffffffffffffffffffffff16141561130057600080fd5b8073ffffffffffffffffffffffffffffffffffffffff166000809054906101000a900473ffffffffffffffffffffffffffffffffffffffff1673ffffffffffffffffffffffffffffffffffffffff167f8be0079c531659141344cd1fd0a4f28419497f9722a3daafe3b4186f6b6457e060405160405180910390a3806000806101000a81548173ffffffffffffffffffffffffffffffffffffffff021916908373ffffffffffffffffffffffffffffffffffffffff16021790555050565b6000600190509392505050565b60006001905091905056fe4f6666657220616d6f756e74206d757374206265203e3d206d696e696d756d206f66666572a265627a7a7231582023b42b452bf4a3e645260083e249fe7166be603453b6b840d25f128cfd7ea66164736f6c63430005100032",
  "source": "pragma solidity ^0.5.16;\n\nimport \"./OracleInterface.sol\";\nimport \"./Ownable.sol\";\n\ncontract MediationOffers is Ownable {\n    \n    mapping(address => bytes32[]) private userToOffers;\n    mapping(bytes32 => Offer[]) private disputeToOffers;\n\n    address internal mediationOracleAddr = 0x957f308011Bd0Fa95ac95fD92A73F06cb7Ec6774;\n    OracleInterface internal mediationOracle = OracleInterface(mediationOracleAddr);\n\n    uint internal minimumOffer = 1000000000000;\n\n    struct Offer {\n        address user;\n        bytes32 disputeId;\n        uint amount; \n        uint8 offerValue;\n    }\n\n    enum ResolvableOutcome {\n        Disputant1,\n        Disputant2\n    }\n\n    function _offerIsValid(address _user, bytes32 _disputeId, uint8 _offerValue) private view returns (bool) {\n        return true;\n    }\n\n    function _disputeOpenForResolution(bytes32 _disputeId) private view returns (bool) {\n        return true;\n    }\n\n    function setOracleAddress(address _oracleAddress) external onlyOwner returns (bool) {\n        mediationOracleAddr = _oracleAddress;\n        mediationOracle = OracleInterface(mediationOracleAddr);\n        return mediationOracle.testConnection();\n    }\n\n    function getOracleAddress() external view returns (address) {\n        return mediationOracleAddr;\n    }\n\n    function getResolvableDisputes() public view returns (bytes32[] memory) {\n        return mediationOracle.getPendingDisputes();\n    }\n\n    function getDispute(bytes32 _disputeId) public view returns (\n        bytes32 id,\n        string memory name,\n        string memory participants,\n        uint8 participantCount,\n        uint date, \n        OracleInterface.DisputeOutcome outcome,\n        int8 mediator) {\n        return mediationOracle.getDispute(_disputeId);\n    }\n\n    function getMostRecentDispute() public view returns (\n        bytes32 id,\n        string memory name,\n        string memory participants,\n        uint participantCount, \n        uint date, \n        OracleInterface.DisputeOutcome outcome,\n        int8 mediator) {\n        return mediationOracle.getMostRecentDispute(true);\n    }\n\n    function makeOffer(bytes32 _disputeId, uint8 _offerValue) public payable {\n\n        require(msg.value >= minimumOffer, \"Offer amount must be >= minimum offer\");\n\n        require(mediationOracle.disputeExists(_disputeId), \"Specified dispute not found\");\n\n        require(_offerIsValid(msg.sender, _disputeId, _offerValue), \"Offer is not valid\");\n\n        require(_disputeOpenForResolution(_disputeId), \"Dispute not open for resolution\");\n\n        address payable addr1 = address(uint160(address(this)));\n\n        addr1.transfer(msg.value);\n\n        Offer[] storage offers = disputeToOffers[_disputeId];\n        offers.push(Offer(msg.sender, _disputeId, msg.value, _offerValue))-1;\n\n        bytes32[] storage userOffers = userToOffers[msg.sender];\n        userOffers.push(_disputeId);\n    }\n\n    function testOracleConnection() public view returns (bool) {\n        return mediationOracle.testConnection();\n    }\n}",
  "sourcePath": "/Users/tbuley/Documents/Code/n3utor/client/contracts/MediationOffers.sol",
  "compiler": {
    "name": "solc",
    "version": "0.5.16+commit.9c3226ce.Emscripten.clang"
  },
  "schemaVersion": "3.4.10",
  "updatedAt": "2022-10-22T22:45:52.551Z",
  "networkType": "ethereum",
  "devdoc": {
    "methods": {}
  },
  "userdoc": {
    "methods": {}
  }
}