{
  "contractName": "MediationOracle",
  "abi": [
    {
      "anonymous": false,
      "inputs": [
        {
          "indexed": true,
          "internalType": "address",
          "name": "previousOwner",
          "type": "address"
        },
        {
          "indexed": true,
          "internalType": "address",
          "name": "newOwner",
          "type": "address"
        }
      ],
      "name": "OwnershipTransferred",
      "type": "event"
    },
    {
      "constant": true,
      "inputs": [],
      "name": "owner",
      "outputs": [
        {
          "internalType": "address",
          "name": "",
          "type": "address"
        }
      ],
      "payable": false,
      "stateMutability": "view",
      "type": "function"
    },
    {
      "constant": false,
      "inputs": [
        {
          "internalType": "address",
          "name": "newOwner",
          "type": "address"
        }
      ],
      "name": "transferOwnership",
      "outputs": [],
      "payable": false,
      "stateMutability": "nonpayable",
      "type": "function"
    },
    {
      "constant": true,
      "inputs": [
        {
          "internalType": "bytes32",
          "name": "_disputeId",
          "type": "bytes32"
        }
      ],
      "name": "disputeExists",
      "outputs": [
        {
          "internalType": "bool",
          "name": "",
          "type": "bool"
        }
      ],
      "payable": false,
      "stateMutability": "view",
      "type": "function"
    },
    {
      "constant": false,
      "inputs": [
        {
          "internalType": "string",
          "name": "_name",
          "type": "string"
        },
        {
          "internalType": "string",
          "name": "_participants",
          "type": "string"
        },
        {
          "internalType": "uint8",
          "name": "_participantCount",
          "type": "uint8"
        },
        {
          "internalType": "uint256",
          "name": "_date",
          "type": "uint256"
        }
      ],
      "name": "addDispute",
      "outputs": [
        {
          "internalType": "bytes32",
          "name": "",
          "type": "bytes32"
        }
      ],
      "payable": false,
      "stateMutability": "nonpayable",
      "type": "function"
    },
    {
      "constant": false,
      "inputs": [
        {
          "internalType": "bytes32",
          "name": "_disputeId",
          "type": "bytes32"
        },
        {
          "internalType": "enum MediationOracle.DisputeOutcome",
          "name": "_outcome",
          "type": "uint8"
        },
        {
          "internalType": "int8",
          "name": "_mediator",
          "type": "int8"
        }
      ],
      "name": "declareOutcome",
      "outputs": [],
      "payable": false,
      "stateMutability": "nonpayable",
      "type": "function"
    },
    {
      "constant": true,
      "inputs": [],
      "name": "getPendingDisputes",
      "outputs": [
        {
          "internalType": "bytes32[]",
          "name": "",
          "type": "bytes32[]"
        }
      ],
      "payable": false,
      "stateMutability": "view",
      "type": "function"
    },
    {
      "constant": true,
      "inputs": [],
      "name": "getAllDisputes",
      "outputs": [
        {
          "internalType": "bytes32[]",
          "name": "",
          "type": "bytes32[]"
        }
      ],
      "payable": false,
      "stateMutability": "view",
      "type": "function"
    },
    {
      "constant": true,
      "inputs": [
        {
          "internalType": "bytes32",
          "name": "_disputeId",
          "type": "bytes32"
        }
      ],
      "name": "getDispute",
      "outputs": [
        {
          "internalType": "bytes32",
          "name": "id",
          "type": "bytes32"
        },
        {
          "internalType": "string",
          "name": "name",
          "type": "string"
        },
        {
          "internalType": "string",
          "name": "participants",
          "type": "string"
        },
        {
          "internalType": "uint8",
          "name": "participantCount",
          "type": "uint8"
        },
        {
          "internalType": "uint256",
          "name": "date",
          "type": "uint256"
        },
        {
          "internalType": "enum MediationOracle.DisputeOutcome",
          "name": "outcome",
          "type": "uint8"
        },
        {
          "internalType": "int8",
          "name": "mediator",
          "type": "int8"
        }
      ],
      "payable": false,
      "stateMutability": "view",
      "type": "function"
    },
    {
      "constant": true,
      "inputs": [
        {
          "internalType": "bool",
          "name": "_pending",
          "type": "bool"
        }
      ],
      "name": "getMostRecentDispute",
      "outputs": [
        {
          "internalType": "bytes32",
          "name": "id",
          "type": "bytes32"
        },
        {
          "internalType": "string",
          "name": "name",
          "type": "string"
        },
        {
          "internalType": "string",
          "name": "participants",
          "type": "string"
        },
        {
          "internalType": "uint8",
          "name": "participantCount",
          "type": "uint8"
        },
        {
          "internalType": "uint256",
          "name": "date",
          "type": "uint256"
        },
        {
          "internalType": "enum MediationOracle.DisputeOutcome",
          "name": "outcome",
          "type": "uint8"
        },
        {
          "internalType": "int8",
          "name": "mediator",
          "type": "int8"
        }
      ],
      "payable": false,
      "stateMutability": "view",
      "type": "function"
    },
    {
      "constant": true,
      "inputs": [],
      "name": "testConnection",
      "outputs": [
        {
          "internalType": "bool",
          "name": "",
          "type": "bool"
        }
      ],
      "payable": false,
      "stateMutability": "pure",
      "type": "function"
    },
    {
      "constant": true,
      "inputs": [],
      "name": "getAddress",
      "outputs": [
        {
          "internalType": "address",
          "name": "",
          "type": "address"
        }
      ],
      "payable": false,
      "stateMutability": "view",
      "type": "function"
    },
    {
      "constant": false,
      "inputs": [],
      "name": "addTestData",
      "outputs": [],
      "payable": false,
      "stateMutability": "nonpayable",
      "type": "function"
    }
  ],
  "bytecode": "0x6080604052336000806101000a81548173ffffffffffffffffffffffffffffffffffffffff021916908373ffffffffffffffffffffffffffffffffffffffff160217905550611dec806100536000396000f3fe608060405234801561001057600080fd5b50600436106100b45760003560e01c806381fe8d9a1161007157806381fe8d9a1461037b5780638da5cb5b146104f8578063a212b45414610542578063ca959c731461054c578063d00e004e1461069e578063f2fde38b146106e4576100b4565b8063136ba6aa146100b95780631dd9997f1461020957806329f2c2d6146102685780633412a15c146102c757806338cc4831146102e95780637898d33414610333575b600080fd5b6100e5600480360360208110156100cf57600080fd5b8101908080359060200190929190505050610728565b6040518088815260200180602001806020018760ff1660ff16815260200186815260200185600381111561011557fe5b60ff1681526020018460000b60000b8152602001838103835289818151815260200191508051906020019080838360005b83811015610161578082015181840152602081019050610146565b50505050905090810190601f16801561018e5780820380516001836020036101000a031916815260200191505b50838103825288818151815260200191508051906020019080838360005b838110156101c75780820151818401526020810190506101ac565b50505050905090810190601f1680156101f45780820380516001836020036101000a031916815260200191505b50995050505050505050505060405180910390f35b61021161096e565b6040518080602001828103825283818151815260200191508051906020019060200280838360005b83811015610254578082015181840152602081019050610239565b505050509050019250505060405180910390f35b610270610a26565b6040518080602001828103825283818151815260200191508051906020019060200280838360005b838110156102b3578082015181840152602081019050610298565b505050509050019250505060405180910390f35b6102cf610b9c565b604051808215151515815260200191505060405180910390f35b6102f1610ba5565b604051808273ffffffffffffffffffffffffffffffffffffffff1673ffffffffffffffffffffffffffffffffffffffff16815260200191505060405180910390f35b6103796004803603606081101561034957600080fd5b8101908080359060200190929190803560ff169060200190929190803560000b9060200190929190505050610bad565b005b6104e26004803603608081101561039157600080fd5b81019080803590602001906401000000008111156103ae57600080fd5b8201836020820111156103c057600080fd5b803590602001918460018302840111640100000000831117156103e257600080fd5b91908080601f016020809104026020016040519081016040528093929190818152602001838380828437600081840152601f19601f8201169050808301925050505050505091929192908035906020019064010000000081111561044557600080fd5b82018360208201111561045757600080fd5b8035906020019184600183028401116401000000008311171561047957600080fd5b91908080601f016020809104026020016040519081016040528093929190818152602001838380828437600081840152601f19601f820116905080830192505050505050509192919290803560ff16906020019092919080359060200190929190505050610d01565b6040518082815260200191505060405180910390f35b610500610f7c565b604051808273ffffffffffffffffffffffffffffffffffffffff1673ffffffffffffffffffffffffffffffffffffffff16815260200191505060405180910390f35b61054a610fa1565b005b61057a6004803603602081101561056257600080fd5b810190808035151590602001909291905050506117af565b6040518088815260200180602001806020018760ff1660ff1681526020018681526020018560038111156105aa57fe5b60ff1681526020018460000b60000b8152602001838103835289818151815260200191508051906020019080838360005b838110156105f65780820151818401526020810190506105db565b50505050905090810190601f1680156106235780820380516001836020036101000a031916815260200191505b50838103825288818151815260200191508051906020019080838360005b8381101561065c578082015181840152602081019050610641565b50505050905090810190601f1680156106895780820380516001836020036101000a031916815260200191505b50995050505050505050505060405180910390f35b6106ca600480360360208110156106b457600080fd5b810190808035906020019092919050505061182a565b604051808215151515815260200191505060405180910390f35b610726600480360360208110156106fa57600080fd5b81019080803573ffffffffffffffffffffffffffffffffffffffff169060200190929190505050611867565b005b600060608060008060008061073c8861182a565b156108fc576000600161074e8a6119b8565b8154811061075857fe5b90600052602060002090600602019050806000015481600101826002018360030160009054906101000a900460ff1684600401548560050160009054906101000a900460ff168660050160019054906101000a900460000b858054600181600116156101000203166002900480601f0160208091040260200160405190810160405280929190818152602001828054600181600116156101000203166002900480156108455780601f1061081a57610100808354040283529160200191610845565b820191906000526020600020905b81548152906001019060200180831161082857829003601f168201915b50505050509550848054600181600116156101000203166002900480601f0160208091040260200160405190810160405280929190818152602001828054600181600116156101000203166002900480156108e15780601f106108b6576101008083540402835291602001916108e1565b820191906000526020600020905b8154815290600101906020018083116108c457829003601f168201915b50505050509450975097509750975097509750975050610963565b8760008060007fffffffffffffffffffffffffffffffffffffffffffffffffffffffffffffffff6040518060200160405280600081525093929190604051806020016040528060008152509392919083935082925080905096509650965096509650965096505b919395979092949650565b6060806001805490506040519080825280602002602001820160405280156109a55781602001602082028038833980820191505090505b50905060006001805490501115610a1f576000809050600060018054905090505b6000811115610a1c576001808203815481106109de57fe5b906000526020600020906006020160000154838380600101945081518110610a0257fe5b6020026020010181815250508080600190039150506109c6565b50505b8091505090565b6060600080905060008090505b600180549050811015610aa05760006003811115610a4d57fe5b60018281548110610a5a57fe5b906000526020600020906006020160050160009054906101000a900460ff166003811115610a8457fe5b1415610a935781806001019250505b8080600101915050610a33565b50606081604051908082528060200260200182016040528015610ad25781602001602082028038833980820191505090505b5090506000821115610b94576000809050600060018054905090505b6000811115610b915760006003811115610b0457fe5b600180830381548110610b1357fe5b906000526020600020906006020160050160009054906101000a900460ff166003811115610b3d57fe5b1415610b8357600180820381548110610b5257fe5b906000526020600020906006020160000154838380600101945081518110610b7657fe5b6020026020010181815250505b808060019003915050610aee565b50505b809250505090565b60006001905090565b600030905090565b6000809054906101000a900473ffffffffffffffffffffffffffffffffffffffff1673ffffffffffffffffffffffffffffffffffffffff163373ffffffffffffffffffffffffffffffffffffffff1614610c0657600080fd5b610c0f8361182a565b610c1857600080fd5b6000610c23846119b8565b9050600060018281548110610c3457fe5b90600052602060002090600602019050600380811115610c5057fe5b846003811115610c5c57fe5b1415610c965760008360000b12158015610c8c57508260ff168160030160009054906101000a900460ff1660ff16115b610c9557600080fd5b5b838160050160006101000a81548160ff02191690836003811115610cb657fe5b0217905550600380811115610cc757fe5b846003811115610cd357fe5b1415610cfa57828160050160016101000a81548160ff021916908360000b60ff1602179055505b5050505050565b60008060009054906101000a900473ffffffffffffffffffffffffffffffffffffffff1673ffffffffffffffffffffffffffffffffffffffff163373ffffffffffffffffffffffffffffffffffffffff1614610d5c57600080fd5b60008584846040516020018084805190602001908083835b60208310610d975780518252602082019150602081019050602083039250610d74565b6001836020036101000a0380198251168184511680821785525050505050509050018360ff1660ff1660f81b81526001018281526020019350505050604051602081830303815290604052805190602001209050610df48161182a565b15610dfe57600080fd5b60006001806040518060e001604052808581526020018a81526020018981526020018860ff16815260200187815260200160006003811115610e3c57fe5b81526020017fffffffffffffffffffffffffffffffffffffffffffffffffffffffffffffffff60000b81525090806001815401808255809150509060018203906000526020600020906006020160009091929091909150600082015181600001556020820151816001019080519060200190610eb9929190611cef565b506040820151816002019080519060200190610ed6929190611cef565b5060608201518160030160006101000a81548160ff021916908360ff1602179055506080820151816004015560a08201518160050160006101000a81548160ff02191690836003811115610f2657fe5b021790555060c08201518160050160016101000a81548160ff021916908360000b60ff16021790555050500390506001810160026000848152602001908152602001600020819055508192505050949350505050565b6000809054906101000a900473ffffffffffffffffffffffffffffffffffffffff1681565b6000809054906101000a900473ffffffffffffffffffffffffffffffffffffffff1673ffffffffffffffffffffffffffffffffffffffff163373ffffffffffffffffffffffffffffffffffffffff1614610ffa57600080fd5b6110d46040518060400160405280601781526020017f506163717569616f2076732e204d6179576561746865720000000000000000008152506040518060400160405280601381526020017f506163717569616f7c4d6179776561746865720000000000000000000000000081525060026110cf6040518061010001604052806107e261ffff168152602001600860ff168152602001600d60ff168152602001600060ff168152602001600060ff168152602001600060ff168152602001600060ff168152602001600060ff168152506119d8565b610d01565b506111af6040518060400160405280601781526020017f4d6163717569616f2076732e20506179776561746865720000000000000000008152506040518060400160405280601381526020017f4d6163717569616f7c506179776561746865720000000000000000000000000081525060026111aa6040518061010001604052806107e261ffff168152602001600860ff168152602001600f60ff168152602001600060ff168152602001600060ff168152602001600060ff168152602001600060ff168152602001600060ff168152506119d8565b610d01565b5061128a6040518060400160405280601881526020017f506163776561746865722076732e204d616361727468757200000000000000008152506040518060400160405280601481526020017f506163776561746865727c4d616361727468757200000000000000000000000081525060026112856040518061010001604052806107e261ffff168152602001600960ff168152602001600360ff168152602001600060ff168152602001600060ff168152602001600060ff168152602001600060ff168152602001600060ff168152506119d8565b610d01565b506113656040518060400160405280601481526020017f4d61636172746875722076732e205472756d616e0000000000000000000000008152506040518060400160405280601081526020017f4d61636172746875727c5472756d616e0000000000000000000000000000000081525060026113606040518061010001604052806107e261ffff168152602001600960ff168152602001600360ff168152602001600060ff168152602001600060ff168152602001600060ff168152602001600060ff168152602001600060ff168152506119d8565b610d01565b506114406040518060400160405280601481526020017f4d6163617175652076732e2050726567756e746f0000000000000000000000008152506040518060400160405280601081526020017f4d6163617175657c50726567756e746f00000000000000000000000000000000815250600261143b6040518061010001604052806107e261ffff168152602001600960ff168152602001601560ff168152602001600060ff168152602001600060ff168152602001600060ff168152602001600060ff168152602001600060ff168152506119d8565b610d01565b5061151b6040518060400160405280601781526020017f46617273776f7274682076732e205765726e7374726f6d0000000000000000008152506040518060400160405280601381526020017f46617273776f7274687c5765726e7374726f6d0000000000000000000000000081525060026115166040518061010001604052806107e261ffff168152602001600960ff168152602001601d60ff168152602001600060ff168152602001600060ff168152602001600060ff168152602001600060ff168152602001600060ff168152506119d8565b610d01565b506115f66040518060400160405280601581526020017f466f7274696e627261732076732e2048616d6c657400000000000000000000008152506040518060400160405280601181526020017f466f7274696e627261737c48616d6c657400000000000000000000000000000081525060026115f16040518061010001604052806107e261ffff168152602001600a60ff168152602001600a60ff168152602001600060ff168152602001600060ff168152602001600060ff168152602001600060ff168152602001600060ff168152506119d8565b610d01565b506116d16040518060400160405280601581526020017f466f6f6c69636c652076732e2050726574656e646f00000000000000000000008152506040518060400160405280601181526020017f466f6f6c69636c657c50726574656e646f00000000000000000000000000000081525060026116cc6040518061010001604052806107e261ffff168152602001600b60ff168152602001600b60ff168152602001600060ff168152602001600060ff168152602001600060ff168152602001600060ff168152602001600060ff168152506119d8565b610d01565b506117ac6040518060400160405280601581526020017f506172746869616e2076732e20536379746869616e00000000000000000000008152506040518060400160405280601181526020017f506172746869616e7c536379746869616e00000000000000000000000000000081525060026117a76040518061010001604052806107e261ffff168152602001600b60ff168152602001600c60ff168152602001600060ff168152602001600060ff168152602001600060ff168152602001600060ff168152602001600060ff168152506119d8565b610d01565b50565b600060608060008060008060008060001b9050606089156117d9576117d2610a26565b90506117e4565b6117e161096e565b90505b60008151111561180657806000815181106117fb57fe5b602002602001015191505b61180f82610728565b98509850985098509850985098505050919395979092949650565b60008060018054905014156118425760009050611862565b600060026000848152602001908152602001600020549050600081119150505b919050565b6000809054906101000a900473ffffffffffffffffffffffffffffffffffffffff1673ffffffffffffffffffffffffffffffffffffffff163373ffffffffffffffffffffffffffffffffffffffff16146118c057600080fd5b600073ffffffffffffffffffffffffffffffffffffffff168173ffffffffffffffffffffffffffffffffffffffff1614156118fa57600080fd5b8073ffffffffffffffffffffffffffffffffffffffff166000809054906101000a900473ffffffffffffffffffffffffffffffffffffffff1673ffffffffffffffffffffffffffffffffffffffff167f8be0079c531659141344cd1fd0a4f28419497f9722a3daafe3b4186f6b6457e060405160405180910390a3806000806101000a81548173ffffffffffffffffffffffffffffffffffffffff021916908373ffffffffffffffffffffffffffffffffffffffff16021790555050565b600060016002600084815260200190815260200160002054039050919050565b6000806107b290505b826000015161ffff168161ffff161015611a28576119fe81611c7a565b15611a11576301e2850082019150611a1b565b6301e13380820191505b80806001019150506119e1565b611a30611d6f565b601f816000600c8110611a3f57fe5b602002019060ff16908160ff1681525050611a5d8460000151611c7a565b15611a8757601d816001600c8110611a7157fe5b602002019060ff16908160ff1681525050611aa8565b601c816001600c8110611a9657fe5b602002019060ff16908160ff16815250505b601f816002600c8110611ab757fe5b602002019060ff16908160ff1681525050601e816003600c8110611ad757fe5b602002019060ff16908160ff1681525050601f816004600c8110611af757fe5b602002019060ff16908160ff1681525050601e816005600c8110611b1757fe5b602002019060ff16908160ff1681525050601f816006600c8110611b3757fe5b602002019060ff16908160ff1681525050601f816007600c8110611b5757fe5b602002019060ff16908160ff1681525050601e816008600c8110611b7757fe5b602002019060ff16908160ff1681525050601f816009600c8110611b9757fe5b602002019060ff16908160ff1681525050601e81600a600c8110611bb757fe5b602002019060ff16908160ff1681525050601f81600b600c8110611bd757fe5b602002019060ff16908160ff1681525050600191505b836020015160ff168261ffff161015611c3157806001830361ffff16600c8110611c1357fe5b602002015160ff166201518002830192508180600101925050611bed565b600184604001510360ff16620151800283019250836060015160ff16610e100283019250836080015160ff16603c02830192508360a0015160ff16830192508292505050919050565b60008060048361ffff1681611c8b57fe5b0661ffff1614611c9e5760009050611cea565b600060648361ffff1681611cae57fe5b0661ffff1614611cc15760019050611cea565b60006101908361ffff1681611cd257fe5b0661ffff1614611ce55760009050611cea565b600190505b919050565b828054600181600116156101000203166002900490600052602060002090601f016020900481019282601f10611d3057805160ff1916838001178555611d5e565b82800160010185558215611d5e579182015b82811115611d5d578251825591602001919060010190611d42565b5b509050611d6b9190611d92565b5090565b604051806101800160405280600c90602082028038833980820191505090505090565b611db491905b80821115611db0576000816000905550600101611d98565b5090565b9056fea265627a7a723158209c253062fd72fcd8fd95bead60ba990330c9b8f85ea3ed5ba8e78b89e556388d64736f6c63430005100032",
  "source": "pragma solidity ^0.5.16;\n\nimport \"./Ownable.sol\";\nimport \"./DateLib.sol\";\n\ncontract MediationOracle is Ownable {\n    Dispute[] disputes;\n    mapping(bytes32 => uint) disputeIdToIndex;\n\n    using DateLib for DateLib.DateTime;\n\n    struct Dispute {\n        bytes32 id;\n        string name;\n        string participants;\n        uint8 participantCount;\n        uint date;\n        DisputeOutcome outcome;\n        int8 mediator;\n    }\n\n    enum DisputeOutcome {\n        Pending,\n        Underway,\n        Draw,\n        Decided\n    }\n\n    function _getDisputeIndex(bytes32 _disputeId) private view returns (uint) {\n        return disputeIdToIndex[_disputeId]-1;\n    }\n    function disputeExists(bytes32 _disputeId) public view returns (bool) {\n        if (disputes.length == 0)\n            return false;\n        uint index = disputeIdToIndex[_disputeId];\n        return (index > 0); \n    }\n\n    function addDispute(string memory _name, string memory _participants, uint8 _participantCount, uint _date) onlyOwner public returns (bytes32) {\n\n        bytes32 id = keccak256(abi.encodePacked(_name, _participantCount, _date));\n\n        require(!disputeExists(id));\n        \n        uint newIndex = disputes.push(Dispute(id, _name, _participants, _participantCount, _date, DisputeOutcome.Pending, -1))-1;\n        disputeIdToIndex[id] = newIndex+1;\n        \n        return id;\n    }\n\n    function declareOutcome(bytes32 _disputeId, DisputeOutcome _outcome, int8 _mediator) onlyOwner external {\n\n        require(disputeExists(_disputeId));\n\n        uint index = _getDisputeIndex(_disputeId);\n        Dispute storage theDispute = disputes[index];\n\n        if (_outcome == DisputeOutcome.Decided)\n            require(_mediator >= 0 && theDispute.participantCount > uint8(_mediator));\n\n        theDispute.outcome = _outcome;\n        \n        if (_outcome == DisputeOutcome.Decided)\n            theDispute.mediator = _mediator;\n    }\n\n    function getPendingDisputes() public view returns (bytes32[] memory) {\n        uint count = 0; \n\n        for (uint i = 0; i < disputes.length; i++) {\n            if (disputes[i].outcome == DisputeOutcome.Pending)\n                count++; \n        }\n\n        bytes32[] memory output = new bytes32[](count);\n\n        if (count > 0) {\n            uint index = 0;\n            for (uint n = disputes.length; n > 0; n--) {\n                if (disputes[n-1].outcome == DisputeOutcome.Pending)\n                    output[index++] = disputes[n-1].id;\n            }\n        } \n\n        return output; \n    }\n\n    function getAllDisputes() public view returns (bytes32[] memory) {\n        bytes32[] memory output = new bytes32[](disputes.length);\n\n        if (disputes.length > 0) {\n            uint index = 0;\n            for (uint n = disputes.length; n > 0; n--) {\n                output[index++] = disputes[n-1].id;\n            }\n        }\n        \n        return output; \n    }\n\n    function getDispute(bytes32 _disputeId) public view returns (\n        bytes32 id,\n        string memory name,\n        string memory participants,\n        uint8 participantCount,\n        uint date, \n        DisputeOutcome outcome,\n        int8 mediator) {\n        \n        if (disputeExists(_disputeId)) {\n            Dispute storage theDispute = disputes[_getDisputeIndex(_disputeId)];\n            return (theDispute.id, theDispute.name, theDispute.participants, theDispute.participantCount, theDispute.date, theDispute.outcome, theDispute.mediator);\n        }\n        else {\n            return (_disputeId, \"\", \"\", 0, 0, DisputeOutcome.Pending, -1);\n        }\n    }\n\n    function getMostRecentDispute(bool _pending) public view returns (\n        bytes32 id,\n        string memory name,\n        string memory participants,\n        uint8 participantCount,\n        uint date, \n        DisputeOutcome outcome,\n        int8 mediator) {\n\n        bytes32 disputeId = 0;\n        bytes32[] memory ids;\n\n        if (_pending) {\n            ids = getPendingDisputes();\n        } else {\n            ids = getAllDisputes();\n        }\n        if (ids.length > 0) {\n            disputeId = ids[0];\n        }\n        \n        return getDispute(disputeId);\n    }\n\n    function testConnection() public pure returns (bool) {\n        return true; \n    }\n\n    function getAddress() public view returns (address) {\n        return address(this);\n    }\n\n    function addTestData() external onlyOwner {\n        addDispute(\"Pacquiao vs. MayWeather\", \"Pacquiao|Mayweather\", 2, DateLib.DateTime(2018, 8, 13, 0, 0, 0, 0, 0).toUnixTimestamp());\n        addDispute(\"Macquiao vs. Payweather\", \"Macquiao|Payweather\", 2, DateLib.DateTime(2018, 8, 15, 0, 0, 0, 0, 0).toUnixTimestamp());\n        addDispute(\"Pacweather vs. Macarthur\", \"Pacweather|Macarthur\", 2, DateLib.DateTime(2018, 9, 3, 0, 0, 0, 0, 0).toUnixTimestamp());\n        addDispute(\"Macarthur vs. Truman\", \"Macarthur|Truman\", 2, DateLib.DateTime(2018, 9, 3, 0, 0, 0, 0, 0).toUnixTimestamp());\n        addDispute(\"Macaque vs. Pregunto\", \"Macaque|Pregunto\", 2, DateLib.DateTime(2018, 9, 21, 0, 0, 0, 0, 0).toUnixTimestamp());\n        addDispute(\"Farsworth vs. Wernstrom\", \"Farsworth|Wernstrom\", 2, DateLib.DateTime(2018, 9, 29, 0, 0, 0, 0, 0).toUnixTimestamp());\n        addDispute(\"Fortinbras vs. Hamlet\", \"Fortinbras|Hamlet\", 2, DateLib.DateTime(2018, 10, 10, 0, 0, 0, 0, 0).toUnixTimestamp());\n        addDispute(\"Foolicle vs. Pretendo\", \"Foolicle|Pretendo\", 2, DateLib.DateTime(2018, 11, 11, 0, 0, 0, 0, 0).toUnixTimestamp());\n        addDispute(\"Parthian vs. Scythian\", \"Parthian|Scythian\", 2, DateLib.DateTime(2018, 11, 12, 0, 0, 0, 0, 0).toUnixTimestamp());\n    }\n}\n",
  "sourcePath": "/Users/tbuley/Documents/Code/n3utor/oracle/contracts/MediationOracle.sol",
  "compiler": {
    "name": "solc",
    "version": "0.5.16+commit.9c3226ce.Emscripten.clang"
  },
  "schemaVersion": "3.4.10",
  "updatedAt": "2022-10-22T22:42:13.631Z",
  "devdoc": {
    "methods": {}
  },
  "userdoc": {
    "methods": {}
  }
}